{
  "_format": "hh3-artifact-1",
  "contractName": "AetherPool",
  "sourceName": "contracts/AetherPool.sol",
  "abi": [
    {
      "inputs": [],
      "stateMutability": "nonpayable",
      "type": "constructor"
    },
    {
      "inputs": [],
      "name": "EnforcedPause",
      "type": "error"
    },
    {
      "inputs": [],
      "name": "ExpectedPause",
      "type": "error"
    },
    {
      "inputs": [],
      "name": "InvalidInitialization",
      "type": "error"
    },
    {
      "inputs": [],
      "name": "NotInitializing",
      "type": "error"
    },
    {
      "inputs": [
        {
          "internalType": "address",
          "name": "owner",
          "type": "address"
        }
      ],
      "name": "OwnableInvalidOwner",
      "type": "error"
    },
    {
      "inputs": [
        {
          "internalType": "address",
          "name": "account",
          "type": "address"
        }
      ],
      "name": "OwnableUnauthorizedAccount",
      "type": "error"
    },
    {
      "anonymous": false,
      "inputs": [
        {
          "indexed": true,
          "internalType": "address",
          "name": "reserve",
          "type": "address"
        },
        {
          "indexed": false,
          "internalType": "address",
          "name": "user",
          "type": "address"
        },
        {
          "indexed": true,
          "internalType": "address",
          "name": "onBehalfOf",
          "type": "address"
        },
        {
          "indexed": false,
          "internalType": "uint256",
          "name": "amount",
          "type": "uint256"
        },
        {
          "indexed": false,
          "internalType": "uint256",
          "name": "interestRateMode",
          "type": "uint256"
        },
        {
          "indexed": false,
          "internalType": "uint256",
          "name": "borrowRate",
          "type": "uint256"
        },
        {
          "indexed": false,
          "internalType": "uint16",
          "name": "referralCode",
          "type": "uint16"
        }
      ],
      "name": "Borrow",
      "type": "event"
    },
    {
      "anonymous": false,
      "inputs": [
        {
          "indexed": false,
          "internalType": "uint64",
          "name": "version",
          "type": "uint64"
        }
      ],
      "name": "Initialized",
      "type": "event"
    },
    {
      "anonymous": false,
      "inputs": [
        {
          "indexed": true,
          "internalType": "address",
          "name": "collateralAsset",
          "type": "address"
        },
        {
          "indexed": true,
          "internalType": "address",
          "name": "debtAsset",
          "type": "address"
        },
        {
          "indexed": true,
          "internalType": "address",
          "name": "user",
          "type": "address"
        },
        {
          "indexed": false,
          "internalType": "uint256",
          "name": "debtToCover",
          "type": "uint256"
        },
        {
          "indexed": false,
          "internalType": "uint256",
          "name": "liquidatedCollateralAmount",
          "type": "uint256"
        },
        {
          "indexed": false,
          "internalType": "address",
          "name": "liquidator",
          "type": "address"
        },
        {
          "indexed": false,
          "internalType": "bool",
          "name": "receiveAToken",
          "type": "bool"
        }
      ],
      "name": "LiquidationCall",
      "type": "event"
    },
    {
      "anonymous": false,
      "inputs": [
        {
          "indexed": true,
          "internalType": "address",
          "name": "previousOwner",
          "type": "address"
        },
        {
          "indexed": true,
          "internalType": "address",
          "name": "newOwner",
          "type": "address"
        }
      ],
      "name": "OwnershipTransferred",
      "type": "event"
    },
    {
      "anonymous": false,
      "inputs": [
        {
          "indexed": false,
          "internalType": "address",
          "name": "account",
          "type": "address"
        }
      ],
      "name": "Paused",
      "type": "event"
    },
    {
      "anonymous": false,
      "inputs": [
        {
          "indexed": true,
          "internalType": "address",
          "name": "asset",
          "type": "address"
        },
        {
          "indexed": false,
          "internalType": "uint256",
          "name": "priceUsd",
          "type": "uint256"
        }
      ],
      "name": "PriceUpdated",
      "type": "event"
    },
    {
      "anonymous": false,
      "inputs": [
        {
          "indexed": true,
          "internalType": "address",
          "name": "reserve",
          "type": "address"
        },
        {
          "indexed": true,
          "internalType": "address",
          "name": "user",
          "type": "address"
        },
        {
          "indexed": true,
          "internalType": "address",
          "name": "repayer",
          "type": "address"
        },
        {
          "indexed": false,
          "internalType": "uint256",
          "name": "amount",
          "type": "uint256"
        },
        {
          "indexed": false,
          "internalType": "bool",
          "name": "useATokens",
          "type": "bool"
        }
      ],
      "name": "Repay",
      "type": "event"
    },
    {
      "anonymous": false,
      "inputs": [
        {
          "indexed": true,
          "internalType": "address",
          "name": "asset",
          "type": "address"
        }
      ],
      "name": "ReserveInitialized",
      "type": "event"
    },
    {
      "anonymous": false,
      "inputs": [
        {
          "indexed": true,
          "internalType": "address",
          "name": "reserve",
          "type": "address"
        },
        {
          "indexed": true,
          "internalType": "address",
          "name": "user",
          "type": "address"
        }
      ],
      "name": "ReserveUsedAsCollateralDisabled",
      "type": "event"
    },
    {
      "anonymous": false,
      "inputs": [
        {
          "indexed": true,
          "internalType": "address",
          "name": "reserve",
          "type": "address"
        },
        {
          "indexed": true,
          "internalType": "address",
          "name": "user",
          "type": "address"
        }
      ],
      "name": "ReserveUsedAsCollateralEnabled",
      "type": "event"
    },
    {
      "anonymous": false,
      "inputs": [
        {
          "indexed": true,
          "internalType": "address",
          "name": "reserve",
          "type": "address"
        },
        {
          "indexed": false,
          "internalType": "address",
          "name": "user",
          "type": "address"
        },
        {
          "indexed": true,
          "internalType": "address",
          "name": "onBehalfOf",
          "type": "address"
        },
        {
          "indexed": false,
          "internalType": "uint256",
          "name": "amount",
          "type": "uint256"
        },
        {
          "indexed": false,
          "internalType": "uint16",
          "name": "referralCode",
          "type": "uint16"
        }
      ],
      "name": "Supply",
      "type": "event"
    },
    {
      "anonymous": false,
      "inputs": [
        {
          "indexed": false,
          "internalType": "address",
          "name": "account",
          "type": "address"
        }
      ],
      "name": "Unpaused",
      "type": "event"
    },
    {
      "anonymous": false,
      "inputs": [
        {
          "indexed": true,
          "internalType": "address",
          "name": "reserve",
          "type": "address"
        },
        {
          "indexed": true,
          "internalType": "address",
          "name": "user",
          "type": "address"
        },
        {
          "indexed": true,
          "internalType": "address",
          "name": "to",
          "type": "address"
        },
        {
          "indexed": false,
          "internalType": "uint256",
          "name": "amount",
          "type": "uint256"
        }
      ],
      "name": "Withdraw",
      "type": "event"
    },
    {
      "inputs": [],
      "name": "BASE_CURRENCY_DECIMALS",
      "outputs": [
        {
          "internalType": "uint256",
          "name": "",
          "type": "uint256"
        }
      ],
      "stateMutability": "view",
      "type": "function"
    },
    {
      "inputs": [],
      "name": "BPS_DENOM",
      "outputs": [
        {
          "internalType": "uint256",
          "name": "",
          "type": "uint256"
        }
      ],
      "stateMutability": "view",
      "type": "function"
    },
    {
      "inputs": [],
      "name": "CLOSE_FACTOR_BPS",
      "outputs": [
        {
          "internalType": "uint256",
          "name": "",
          "type": "uint256"
        }
      ],
      "stateMutability": "view",
      "type": "function"
    },
    {
      "inputs": [],
      "name": "FULL_LIQUIDATION_HF_THRESHOLD",
      "outputs": [
        {
          "internalType": "uint256",
          "name": "",
          "type": "uint256"
        }
      ],
      "stateMutability": "view",
      "type": "function"
    },
    {
      "inputs": [],
      "name": "HEALTH_FACTOR_DECIMALS",
      "outputs": [
        {
          "internalType": "uint256",
          "name": "",
          "type": "uint256"
        }
      ],
      "stateMutability": "view",
      "type": "function"
    },
    {
      "inputs": [],
      "name": "MIN_BORROW_AMOUNT",
      "outputs": [
        {
          "internalType": "uint256",
          "name": "",
          "type": "uint256"
        }
      ],
      "stateMutability": "view",
      "type": "function"
    },
    {
      "inputs": [],
      "name": "SECONDS_PER_YEAR",
      "outputs": [
        {
          "internalType": "uint256",
          "name": "",
          "type": "uint256"
        }
      ],
      "stateMutability": "view",
      "type": "function"
    },
    {
      "inputs": [
        {
          "internalType": "address",
          "name": "asset",
          "type": "address"
        },
        {
          "internalType": "uint256",
          "name": "amount",
          "type": "uint256"
        },
        {
          "internalType": "uint256",
          "name": "interestRateMode",
          "type": "uint256"
        },
        {
          "internalType": "uint16",
          "name": "referralCode",
          "type": "uint16"
        },
        {
          "internalType": "address",
          "name": "onBehalfOf",
          "type": "address"
        }
      ],
      "name": "borrow",
      "outputs": [],
      "stateMutability": "nonpayable",
      "type": "function"
    },
    {
      "inputs": [
        {
          "internalType": "address",
          "name": "",
          "type": "address"
        },
        {
          "internalType": "address",
          "name": "",
          "type": "address"
        }
      ],
      "name": "collateralDisabled",
      "outputs": [
        {
          "internalType": "bool",
          "name": "",
          "type": "bool"
        }
      ],
      "stateMutability": "view",
      "type": "function"
    },
    {
      "inputs": [
        {
          "internalType": "address",
          "name": "",
          "type": "address"
        },
        {
          "internalType": "address",
          "name": "",
          "type": "address"
        }
      ],
      "name": "debtTimestamp",
      "outputs": [
        {
          "internalType": "uint256",
          "name": "",
          "type": "uint256"
        }
      ],
      "stateMutability": "view",
      "type": "function"
    },
    {
      "inputs": [],
      "name": "getAllReservesData",
      "outputs": [
        {
          "components": [
            {
              "internalType": "address",
              "name": "asset",
              "type": "address"
            },
            {
              "internalType": "string",
              "name": "name",
              "type": "string"
            },
            {
              "internalType": "string",
              "name": "symbol",
              "type": "string"
            },
            {
              "internalType": "uint8",
              "name": "decimals",
              "type": "uint8"
            },
            {
              "internalType": "bool",
              "name": "borrowingEnabled",
              "type": "bool"
            },
            {
              "internalType": "bool",
              "name": "collateralEnabled",
              "type": "bool"
            },
            {
              "internalType": "uint16",
              "name": "ltv",
              "type": "uint16"
            },
            {
              "internalType": "uint16",
              "name": "liquidationThreshold",
              "type": "uint16"
            },
            {
              "internalType": "uint16",
              "name": "liquidationBonus",
              "type": "uint16"
            },
            {
              "internalType": "uint16",
              "name": "supplyRateBps",
              "type": "uint16"
            },
            {
              "internalType": "uint16",
              "name": "borrowRateBps",
              "type": "uint16"
            },
            {
              "internalType": "uint128",
              "name": "priceUsd",
              "type": "uint128"
            },
            {
              "internalType": "uint256",
              "name": "totalSupplied",
              "type": "uint256"
            },
            {
              "internalType": "uint256",
              "name": "totalBorrowed",
              "type": "uint256"
            },
            {
              "internalType": "uint256",
              "name": "availableLiquidity",
              "type": "uint256"
            }
          ],
          "internalType": "struct AetherPool.AggregatedReserveData[]",
          "name": "data",
          "type": "tuple[]"
        }
      ],
      "stateMutability": "view",
      "type": "function"
    },
    {
      "inputs": [
        {
          "internalType": "address",
          "name": "asset",
          "type": "address"
        }
      ],
      "name": "getAssetPrice",
      "outputs": [
        {
          "internalType": "uint256",
          "name": "",
          "type": "uint256"
        }
      ],
      "stateMutability": "view",
      "type": "function"
    },
    {
      "inputs": [],
      "name": "getReservesList",
      "outputs": [
        {
          "internalType": "address[]",
          "name": "",
          "type": "address[]"
        }
      ],
      "stateMutability": "view",
      "type": "function"
    },
    {
      "inputs": [
        {
          "internalType": "address",
          "name": "user",
          "type": "address"
        }
      ],
      "name": "getUserAccountData",
      "outputs": [
        {
          "internalType": "uint256",
          "name": "totalCollateralBase",
          "type": "uint256"
        },
        {
          "internalType": "uint256",
          "name": "totalDebtBase",
          "type": "uint256"
        },
        {
          "internalType": "uint256",
          "name": "availableBorrowsBase",
          "type": "uint256"
        },
        {
          "internalType": "uint256",
          "name": "currentLiquidationThreshold",
          "type": "uint256"
        },
        {
          "internalType": "uint256",
          "name": "ltv",
          "type": "uint256"
        },
        {
          "internalType": "uint256",
          "name": "healthFactor",
          "type": "uint256"
        }
      ],
      "stateMutability": "view",
      "type": "function"
    },
    {
      "inputs": [
        {
          "internalType": "address",
          "name": "user",
          "type": "address"
        }
      ],
      "name": "getUserReservesData",
      "outputs": [
        {
          "components": [
            {
              "internalType": "address",
              "name": "asset",
              "type": "address"
            },
            {
              "internalType": "uint256",
              "name": "supplied",
              "type": "uint256"
            },
            {
              "internalType": "uint256",
              "name": "currentDebt",
              "type": "uint256"
            },
            {
              "internalType": "bool",
              "name": "usageAsCollateralEnabled",
              "type": "bool"
            }
          ],
          "internalType": "struct AetherPool.UserReserveData[]",
          "name": "data",
          "type": "tuple[]"
        }
      ],
      "stateMutability": "view",
      "type": "function"
    },
    {
      "inputs": [
        {
          "internalType": "address",
          "name": "asset",
          "type": "address"
        },
        {
          "internalType": "bool",
          "name": "borrowingEnabled",
          "type": "bool"
        },
        {
          "internalType": "bool",
          "name": "collateralEnabled",
          "type": "bool"
        },
        {
          "internalType": "uint16",
          "name": "ltv",
          "type": "uint16"
        },
        {
          "internalType": "uint16",
          "name": "liquidationThreshold",
          "type": "uint16"
        },
        {
          "internalType": "uint16",
          "name": "liquidationBonus",
          "type": "uint16"
        },
        {
          "internalType": "uint16",
          "name": "supplyRateBps",
          "type": "uint16"
        },
        {
          "internalType": "uint16",
          "name": "borrowRateBps",
          "type": "uint16"
        },
        {
          "internalType": "uint128",
          "name": "priceUsd",
          "type": "uint128"
        }
      ],
      "name": "initReserve",
      "outputs": [],
      "stateMutability": "nonpayable",
      "type": "function"
    },
    {
      "inputs": [],
      "name": "initialize",
      "outputs": [],
      "stateMutability": "nonpayable",
      "type": "function"
    },
    {
      "inputs": [
        {
          "internalType": "address",
          "name": "collateralAsset",
          "type": "address"
        },
        {
          "internalType": "address",
          "name": "debtAsset",
          "type": "address"
        },
        {
          "internalType": "address",
          "name": "user",
          "type": "address"
        },
        {
          "internalType": "uint256",
          "name": "debtToCover",
          "type": "uint256"
        },
        {
          "internalType": "bool",
          "name": "receiveAToken",
          "type": "bool"
        }
      ],
      "name": "liquidationCall",
      "outputs": [
        {
          "internalType": "uint256",
          "name": "",
          "type": "uint256"
        },
        {
          "internalType": "uint256",
          "name": "",
          "type": "uint256"
        }
      ],
      "stateMutability": "nonpayable",
      "type": "function"
    },
    {
      "inputs": [],
      "name": "owner",
      "outputs": [
        {
          "internalType": "address",
          "name": "",
          "type": "address"
        }
      ],
      "stateMutability": "view",
      "type": "function"
    },
    {
      "inputs": [],
      "name": "pause",
      "outputs": [],
      "stateMutability": "nonpayable",
      "type": "function"
    },
    {
      "inputs": [],
      "name": "paused",
      "outputs": [
        {
          "internalType": "bool",
          "name": "",
          "type": "bool"
        }
      ],
      "stateMutability": "view",
      "type": "function"
    },
    {
      "inputs": [],
      "name": "renounceOwnership",
      "outputs": [],
      "stateMutability": "nonpayable",
      "type": "function"
    },
    {
      "inputs": [
        {
          "internalType": "address",
          "name": "asset",
          "type": "address"
        },
        {
          "internalType": "uint256",
          "name": "amount",
          "type": "uint256"
        },
        {
          "internalType": "uint256",
          "name": "",
          "type": "uint256"
        },
        {
          "internalType": "address",
          "name": "onBehalfOf",
          "type": "address"
        }
      ],
      "name": "repay",
      "outputs": [
        {
          "internalType": "uint256",
          "name": "",
          "type": "uint256"
        }
      ],
      "stateMutability": "nonpayable",
      "type": "function"
    },
    {
      "inputs": [
        {
          "internalType": "address",
          "name": "asset",
          "type": "address"
        },
        {
          "internalType": "uint256",
          "name": "amount",
          "type": "uint256"
        },
        {
          "internalType": "address",
          "name": "to",
          "type": "address"
        }
      ],
      "name": "rescue",
      "outputs": [],
      "stateMutability": "nonpayable",
      "type": "function"
    },
    {
      "inputs": [
        {
          "internalType": "address",
          "name": "",
          "type": "address"
        }
      ],
      "name": "reserveConfigs",
      "outputs": [
        {
          "internalType": "bool",
          "name": "initialized",
          "type": "bool"
        },
        {
          "internalType": "bool",
          "name": "borrowingEnabled",
          "type": "bool"
        },
        {
          "internalType": "bool",
          "name": "collateralEnabled",
          "type": "bool"
        },
        {
          "internalType": "uint16",
          "name": "ltv",
          "type": "uint16"
        },
        {
          "internalType": "uint16",
          "name": "liquidationThreshold",
          "type": "uint16"
        },
        {
          "internalType": "uint16",
          "name": "liquidationBonus",
          "type": "uint16"
        },
        {
          "internalType": "uint16",
          "name": "supplyRateBps",
          "type": "uint16"
        },
        {
          "internalType": "uint16",
          "name": "borrowRateBps",
          "type": "uint16"
        },
        {
          "internalType": "uint8",
          "name": "decimals",
          "type": "uint8"
        },
        {
          "internalType": "uint128",
          "name": "priceUsd",
          "type": "uint128"
        }
      ],
      "stateMutability": "view",
      "type": "function"
    },
    {
      "inputs": [
        {
          "internalType": "address",
          "name": "asset",
          "type": "address"
        },
        {
          "internalType": "uint128",
          "name": "priceUsd",
          "type": "uint128"
        }
      ],
      "name": "setAssetPrice",
      "outputs": [],
      "stateMutability": "nonpayable",
      "type": "function"
    },
    {
      "inputs": [
        {
          "internalType": "address",
          "name": "asset",
          "type": "address"
        },
        {
          "internalType": "bool",
          "name": "useAsCollateral",
          "type": "bool"
        }
      ],
      "name": "setUserUseReserveAsCollateral",
      "outputs": [],
      "stateMutability": "nonpayable",
      "type": "function"
    },
    {
      "inputs": [
        {
          "internalType": "address",
          "name": "asset",
          "type": "address"
        },
        {
          "internalType": "uint256",
          "name": "amount",
          "type": "uint256"
        },
        {
          "internalType": "address",
          "name": "onBehalfOf",
          "type": "address"
        },
        {
          "internalType": "uint16",
          "name": "referralCode",
          "type": "uint16"
        }
      ],
      "name": "supply",
      "outputs": [],
      "stateMutability": "nonpayable",
      "type": "function"
    },
    {
      "inputs": [
        {
          "internalType": "address",
          "name": "",
          "type": "address"
        }
      ],
      "name": "totalBorrowed",
      "outputs": [
        {
          "internalType": "uint256",
          "name": "",
          "type": "uint256"
        }
      ],
      "stateMutability": "view",
      "type": "function"
    },
    {
      "inputs": [
        {
          "internalType": "address",
          "name": "",
          "type": "address"
        }
      ],
      "name": "totalSupplied",
      "outputs": [
        {
          "internalType": "uint256",
          "name": "",
          "type": "uint256"
        }
      ],
      "stateMutability": "view",
      "type": "function"
    },
    {
      "inputs": [
        {
          "internalType": "address",
          "name": "newOwner",
          "type": "address"
        }
      ],
      "name": "transferOwnership",
      "outputs": [],
      "stateMutability": "nonpayable",
      "type": "function"
    },
    {
      "inputs": [],
      "name": "unpause",
      "outputs": [],
      "stateMutability": "nonpayable",
      "type": "function"
    },
    {
      "inputs": [
        {
          "internalType": "address",
          "name": "",
          "type": "address"
        },
        {
          "internalType": "address",
          "name": "",
          "type": "address"
        }
      ],
      "name": "userDebt",
      "outputs": [
        {
          "internalType": "uint256",
          "name": "",
          "type": "uint256"
        }
      ],
      "stateMutability": "view",
      "type": "function"
    },
    {
      "inputs": [
        {
          "internalType": "address",
          "name": "",
          "type": "address"
        },
        {
          "internalType": "address",
          "name": "",
          "type": "address"
        }
      ],
      "name": "userSupplies",
      "outputs": [
        {
          "internalType": "uint256",
          "name": "",
          "type": "uint256"
        }
      ],
      "stateMutability": "view",
      "type": "function"
    },
    {
      "inputs": [
        {
          "internalType": "address",
          "name": "asset",
          "type": "address"
        },
        {
          "internalType": "uint256",
          "name": "amount",
          "type": "uint256"
        },
        {
          "internalType": "address",
          "name": "to",
          "type": "address"
        }
      ],
      "name": "withdraw",
      "outputs": [
        {
          "internalType": "uint256",
          "name": "",
          "type": "uint256"
        }
      ],
      "stateMutability": "nonpayable",
      "type": "function"
    }
  ],
  "bytecode": "0x6080604052348015600e575f5ffd5b5060156019565b60c9565b7ff0c57e16840df040f15088dc2f81fe391c3923bec73e23a9662efc9c229c6a00805468010000000000000000900460ff161560685760405163f92ee8a960e01b815260040160405180910390fd5b80546001600160401b039081161460c65780546001600160401b0319166001600160401b0390811782556040519081527fc7f505b2f371ae2175ee4913f4499e1f2633a7b5936321eed1cdaeb6115181d29060200160405180910390a15b50565b613453806100d65f395ff3fe608060405234801561000f575f5ffd5b5060043610610207575f3560e01c806379751e1b1161011f578063b3596f07116100a9578063e2e1ca2b11610079578063e2e1ca2b1461050c578063e6a69ab81461052b578063f1af9b0414610536578063f2fde38b1461054b578063f4a3db1b1461055e575f5ffd5b8063b3596f0714610470578063b4bc12de146104a8578063bf92857c146104b7578063d1946dbc146104f7575f5ffd5b806387dd56bc116100ef57806387dd56bc146103b95780638da5cb5b146103e65780639f7f41bb14610420578063a415bcad1461044a578063b1fa847e1461045d575f5ffd5b806379751e1b146103765780638129fc1c146103965780638456cb591461039e5780638671d23b146103a6575f5ffd5b80635a3b74b9116101a057806369328dec1161017057806369328dec146103295780636bbe56cf1461033c578063715018a61461035b578063717437a314610363578063745a5cec14610320575f5ffd5b80635a3b74b9146102d75780635c975abb146102ea578063617ba0371461030d5780636637e38c14610320575f5ffd5b8063311d5c62116101db578063311d5c62146102a95780633f4ba83a146102b157806348ddab64146102bb578063573ade81146102c4575f5ffd5b8062a718a91461020b578063028cc6511461023857806307e18d911461027057806314c8ad2c1461027f575b5f5ffd5b61021e610219366004612ba9565b61064e565b604080519283526020830191909152015b60405180910390f35b610262610246366004612c07565b600460209081525f928352604080842090915290825290205481565b60405190815260200161022f565b610262670d2f13f7789f000081565b61026261028d366004612c07565b600560209081525f928352604080842090915290825290205481565b610262600881565b6102b96108e5565b005b61026261138881565b6102626102d2366004612c38565b6108f7565b6102b96102e5366004612c7b565b610b24565b5f5160206133fe5f395f51905f525460ff165b604051901515815260200161022f565b6102b961031b366004612cc1565b610c62565b61026261271081565b610262610337366004612d00565b610e10565b61026261034a366004612d39565b60026020525f908152604090205481565b6102b9611083565b6102b9610371366004612d6f565b611094565b610389610384366004612d39565b611458565b60405161022f9190612e15565b6102b9611594565b6102b9611694565b6102b96103b4366004612d00565b6116a4565b6102fd6103c7366004612c07565b600760209081525f928352604080842090915290825290205460ff1681565b7f9016d09d72d40fdae2fd8ceac6b6234c7706214fd39c1cd1e609a0528c199300546040516001600160a01b03909116815260200161022f565b61026261042e366004612c07565b600660209081525f928352604080842090915290825290205481565b6102b9610458366004612e85565b611722565b6102b961046b366004612ed8565b611aef565b61026261047e366004612d39565b6001600160a01b03165f90815260016020526040902054600160701b90046001600160801b031690565b610262670de0b6b3a764000081565b6104ca6104c5366004612d39565b611bf7565b604080519687526020870195909552938501929092526060840152608083015260a082015260c00161022f565b6104ff611e9f565b60405161022f9190612f00565b61026261051a366004612d39565b60036020525f908152604090205481565b6102626301e1338081565b61053e611efe565b60405161022f9190612f6e565b6102b9610559366004612d39565b612236565b6105e861056c366004612d39565b60016020525f908152604090205460ff80821691610100810482169162010000820481169161ffff63010000008204811692650100000000008304821692600160381b8104831692600160481b8204811692600160581b830490911691600160681b8104909116906001600160801b03600160701b909104168a565b604080519a15158b5298151560208b01529615159789019790975261ffff9485166060890152928416608088015290831660a0870152821660c08601521660e084015260ff9091166101008301526001600160801b03166101208201526101400161022f565b5f5f610658612273565b6001600160a01b0387165f9081526001602052604090205460ff16801561069657506001600160a01b0386165f9081526001602052604090205460ff165b6106bb5760405162461bcd60e51b81526004016106b2906130fa565b60405180910390fd5b6001600160a01b0387165f9081526001602052604090205462010000900460ff1661071f5760405162461bcd60e51b8152602060048201526014602482015273185cdcd95d081b9bdd0818dbdb1b185d195c985b60621b60448201526064016106b2565b6001600160a01b038086165f908152600760209081526040808320938b168352929052205460ff161561078c5760405162461bcd60e51b8152602060048201526015602482015274636f6c6c61746572616c206e6f742061637469766560581b60448201526064016106b2565b5f84116107ab5760405162461bcd60e51b81526004016106b290613121565b5f5f6107b687611bf7565b95505050509250505f821180156107d45750670de0b6b3a764000081105b6108115760405162461bcd60e51b815260206004820152600e60248201526d4846206e6f742062656c6f77203160901b60448201526064016106b2565b61081b87896122a3565b6001600160a01b038088165f908152600560209081526040808320938c1683529290522054806108805760405162461bcd60e51b815260206004820152601060248201526f1b9bc81919589d081a5b88185cdcd95d60821b60448201526064016106b2565b5f670d2f13f7789f000083106108ae5761271061089f6113888461315a565b6108a99190613171565b6108b0565b815b90505f8189116108c057886108c2565b815b90506108d28c8c8c84878d612369565b9650965050505050509550959350505050565b6108ed612883565b6108f56128de565b565b5f610900612273565b6001600160a01b0385165f9081526001602052604090205460ff166109375760405162461bcd60e51b81526004016106b2906130fa565b61094182866122a3565b6001600160a01b038083165f908152600560209081526040808320938916835292905220548061099d5760405162461bcd60e51b81526020600482015260076024820152661b9bc81919589d60ca1b60448201526064016106b2565b5f5f198614806109ac57508186115b6109b657856109b8565b815b6040516323b872dd60e01b8152336004820152306024820152604481018290529091506001600160a01b038816906323b872dd906064016020604051808303815f875af1158015610a0b573d5f5f3e3d5ffd5b505050506040513d601f19601f82011682018060405250810190610a2f9190613190565b610a4b5760405162461bcd60e51b81526004016106b2906131ab565b610a5581836131d4565b6001600160a01b038086165f908152600560209081526040808320938c168352928152828220939093556003909252902054811115610a94575f610ab7565b6001600160a01b0387165f90815260036020526040902054610ab79082906131d4565b6001600160a01b038089165f818152600360205260408082209490945592513393928816927fa534c8dbe71f871f9f3530e97a74601fea17b426cae02e1c5aee42c96c78405191610b12918782521515602082015260400190565b60405180910390a49695505050505050565b6001600160a01b0382165f9081526001602052604090205460ff16610b5b5760405162461bcd60e51b81526004016106b2906130fa565b335f9081526007602090815260408083206001600160a01b03861684529091529020805460ff1916821517905580610c2a575f5f610b9833611bf7565b9550505050925050815f1480610bb65750670de0b6b3a76400008110155b610bef5760405162461bcd60e51b815260206004820152600a602482015269484620746f6f206c6f7760b01b60448201526064016106b2565b60405133906001600160a01b038616907f44c58d81365b66dd4b1a7f36c25aa97b8c71c361ee4937adc1a00000227db5dd905f90a350505050565b60405133906001600160a01b038416907e058a56ea94653cdf4f152d227ace22d4c00ad99e2a43f58cb7d9e3feb295f2905f90a35050565b610c6a612273565b6001600160a01b0384165f9081526001602052604090205460ff16610ca15760405162461bcd60e51b81526004016106b2906130fa565b5f8311610cc05760405162461bcd60e51b81526004016106b290613121565b6040516323b872dd60e01b8152336004820152306024820152604481018490526001600160a01b038516906323b872dd906064016020604051808303815f875af1158015610d10573d5f5f3e3d5ffd5b505050506040513d601f19601f82011682018060405250810190610d349190613190565b610d505760405162461bcd60e51b81526004016106b2906131ab565b6001600160a01b038083165f90815260046020908152604080832093881683529290529081208054859290610d869084906131e7565b90915550506001600160a01b0384165f9081526002602052604081208054859290610db29084906131e7565b9091555050604080513381526020810185905261ffff83168183015290516001600160a01b0384811692908716917f2b627736bca15cd5381dcf80b0bf11fd197d01a037c52b927a881a10fb73ba619181900360600190a350505050565b5f610e19612273565b6001600160a01b0384165f9081526001602052604090205460ff16610e505760405162461bcd60e51b81526004016106b2906130fa565b335f9081526004602090815260408083206001600160a01b0388168452909152812054905f198514610e825784610e84565b815b90505f81118015610e955750818111155b610ed25760405162461bcd60e51b815260206004820152600e60248201526d1a5b9d985b1a5908185b5bdd5b9d60921b60448201526064016106b2565b610edc81836131d4565b335f9081526004602090815260408083206001600160a01b038b168452825280832093909355600290529081208054839290610f199084906131d4565b909155505f905080610f2a33611bf7565b9550505050925050815f1480610f485750670de0b6b3a76400008110155b610f945760405162461bcd60e51b815260206004820152601960248201527f484620746f6f206c6f772061667465722077697468647261770000000000000060448201526064016106b2565b60405163a9059cbb60e01b81526001600160a01b0387811660048301526024820185905289169063a9059cbb906044016020604051808303815f875af1158015610fe0573d5f5f3e3d5ffd5b505050506040513d601f19601f820116820180604052508101906110049190613190565b6110205760405162461bcd60e51b81526004016106b2906131ab565b856001600160a01b0316336001600160a01b0316896001600160a01b03167f3115d1449a7b732c986cba18244e897a450f61e1bb8d589cd2e69e6c8924f9f78660405161106f91815260200190565b60405180910390a450909695505050505050565b61108b612883565b6108f55f61293d565b61109c612883565b6001600160a01b0389165f9081526001602052604090205460ff16156110fa5760405162461bcd60e51b8152602060048201526013602482015272185b1c9958591e481a5b9a5d1a585b1a5e9959606a1b60448201526064016106b2565b8561ffff168561ffff1610156111445760405162461bcd60e51b815260206004820152600f60248201526e3a343932b9b437b632101e10363a3b60891b60448201526064016106b2565b5f816001600160801b03161161118d5760405162461bcd60e51b815260206004820152600e60248201526d1c1c9a58d9481c995c5d5a5c995960921b60448201526064016106b2565b604051806101400160405280600115158152602001891515815260200188151581526020018761ffff1681526020018661ffff1681526020018561ffff1681526020018461ffff1681526020018361ffff1681526020018a6001600160a01b031663313ce5676040518163ffffffff1660e01b8152600401602060405180830381865afa158015611220573d5f5f3e3d5ffd5b505050506040513d601f19601f8201168201806040525081019061124491906131fa565b60ff168152602001826001600160801b031681525060015f8b6001600160a01b03166001600160a01b031681526020019081526020015f205f820151815f015f6101000a81548160ff0219169083151502179055506020820151815f0160016101000a81548160ff0219169083151502179055506040820151815f0160026101000a81548160ff0219169083151502179055506060820151815f0160036101000a81548161ffff021916908361ffff1602179055506080820151815f0160056101000a81548161ffff021916908361ffff16021790555060a0820151815f0160076101000a81548161ffff021916908361ffff16021790555060c0820151815f0160096101000a81548161ffff021916908361ffff16021790555060e0820151815f01600b6101000a81548161ffff021916908361ffff160217905550610100820151815f01600d6101000a81548160ff021916908360ff160217905550610120820151815f01600e6101000a8154816001600160801b0302191690836001600160801b031602179055509050505f89908060018154018082558091505060019003905f5260205f20015f9091909190916101000a8154816001600160a01b0302191690836001600160a01b03160217905550886001600160a01b03167f0499d871c77da24e23f15a1c0c61d9741a93909db53cb6eb3b8575ab6a9179fe60405160405180910390a2505050505050505050565b5f5460609067ffffffffffffffff8111156114755761147561321a565b6040519080825280602002602001820160405280156114c557816020015b604080516080810182525f8082526020808301829052928201819052606082015282525f199092019101816114935790505b5090505f5b5f5481101561158e575f5f82815481106114e6576114e661322e565b5f918252602080832090910154604080516080810182526001600160a01b0392831680825292891685526004845281852083865284529381902054928401929092529250810161153686846129ad565b81526001600160a01b038087165f90815260076020908152604080832093871683529281529190205460ff1615910152835184908490811061157a5761157a61322e565b6020908102919091010152506001016114ca565b50919050565b5f61159d612a83565b805490915060ff600160401b820416159067ffffffffffffffff165f811580156115c45750825b90505f8267ffffffffffffffff1660011480156115e05750303b155b9050811580156115ee575080155b1561160c5760405163f92ee8a960e01b815260040160405180910390fd5b845467ffffffffffffffff19166001178555831561163657845460ff60401b1916600160401b1785555b61163f33612aab565b611647612abc565b831561168d57845460ff60401b19168555604051600181527fc7f505b2f371ae2175ee4913f4499e1f2633a7b5936321eed1cdaeb6115181d29060200160405180910390a15b5050505050565b61169c612883565b6108f5612ac4565b6116ac612883565b60405163a9059cbb60e01b81526001600160a01b0382811660048301526024820184905284169063a9059cbb906044016020604051808303815f875af11580156116f8573d5f5f3e3d5ffd5b505050506040513d601f19601f8201168201806040525081019061171c9190613190565b50505050565b61172a612273565b6001600160a01b0385165f908152600160205260409020805460ff166117625760405162461bcd60e51b81526004016106b2906130fa565b8054610100900460ff166117ad5760405162461bcd60e51b8152602060048201526012602482015271189bdc9c9bddda5b99c8191a5cd8589b195960721b60448201526064016106b2565b5f85116117cc5760405162461bcd60e51b81526004016106b290613121565b6127108510156118115760405162461bcd60e51b815260206004820152601060248201526f30b6b7bab73a103132b637bb9036b4b760811b60448201526064016106b2565b6001600160a01b03821633146118695760405162461bcd60e51b815260206004820152601d60248201527f6372656469742064656c65676174696f6e20756e737570706f7274656400000060448201526064016106b2565b6040516370a0823160e01b815230600482015285906001600160a01b038816906370a0823190602401602060405180830381865afa1580156118ad573d5f5f3e3d5ffd5b505050506040513d601f19601f820116820180604052508101906118d19190613242565b10156119185760405162461bcd60e51b8152602060048201526016602482015275696e73756666696369656e74206c697175696469747960501b60448201526064016106b2565b61192233876122a3565b335f9081526005602090815260408083206001600160a01b038a168452909152812080548792906119549084906131e7565b90915550506001600160a01b0386165f90815260036020526040812080548792906119809084906131e7565b909155505f9050808061199233611bf7565b50945050509250925080836119a7919061315a565b6119b36127108461315a565b11156119ef5760405162461bcd60e51b815260206004820152600b60248201526a32bc31b2b2b23990262a2b60a91b60448201526064016106b2565b60405163a9059cbb60e01b8152336004820152602481018990526001600160a01b038a169063a9059cbb906044016020604051808303815f875af1158015611a39573d5f5f3e3d5ffd5b505050506040513d601f19601f82011682018060405250810190611a5d9190613190565b611a795760405162461bcd60e51b81526004016106b2906131ab565b835460408051338152602081018b90528082018a905261ffff600160581b909304831660608201529188166080830152516001600160a01b0387811692908c16917fc6a898309e823ee50bac64e45ca8adba6690e99e7841c45d754e2a38e9019d9b9181900360a00190a3505050505050505050565b611af7612883565b6001600160a01b0382165f9081526001602052604090205460ff16611b2e5760405162461bcd60e51b81526004016106b2906130fa565b5f816001600160801b031611611b775760405162461bcd60e51b815260206004820152600e60248201526d1c1c9a58d9481c995c5d5a5c995960921b60448201526064016106b2565b6001600160a01b0382165f8181526001602090815260409182902080546fffffffffffffffffffffffffffffffff60701b1916600160701b6001600160801b0387169081029190911790915591519182527f0d86730737b142fc160892fa8a0f2db687a92a0e294d1ad70624cf5acef03b84910160405180910390a25050565b5f80808080808080805b5f54811015611dfa575f5f8281548110611c1d57611c1d61322e565b905f5260205f20015f9054906101000a90046001600160a01b031690505f60015f836001600160a01b03166001600160a01b031681526020019081526020015f2090505f60045f8e6001600160a01b03166001600160a01b031681526020019081526020015f205f846001600160a01b03166001600160a01b031681526020019081526020015f205490505f81118015611cbe5750815462010000900460ff165b8015611cef57506001600160a01b03808e165f9081526007602090815260408083209387168352929052205460ff16155b15611d8d5781545f90611d0d90600160681b900460ff16600a61333c565b8354611d2990600160701b90046001600160801b03168461315a565b611d339190613171565b9050611d3f818e6131e7565b8354909d50611d59906301000000900461ffff168261315a565b611d6390886131e7565b8354909750611d7f9065010000000000900461ffff168261315a565b611d8990876131e7565b9550505b5f611d988e856129ad565b90508015611dea578254611db790600160681b900460ff16600a61333c565b8354611dd390600160701b90046001600160801b03168361315a565b611ddd9190613171565b611de7908d6131e7565b9b505b505060019092019150611c019050565b508715611e1a57611e0b8883613171565b9350611e178882613171565b94505b5f612710611e28868b61315a565b611e329190613171565b9050878111611e41575f611e4b565b611e4b88826131d4565b9650875f03611e5d575f199350611e93565b611e696127108961315a565b670de0b6b3a7640000611e7c888c61315a565b611e86919061315a565b611e909190613171565b93505b50505091939550919395565b60605f805480602002602001604051908101604052809291908181526020018280548015611ef457602002820191905f5260205f20905b81546001600160a01b03168152600190910190602001808311611ed6575b5050505050905090565b5f5460609067ffffffffffffffff811115611f1b57611f1b61321a565b604051908082528060200260200182016040528015611fc057816020015b604080516101e0810182525f8082526060602080840182905293830181905282018190526080820181905260a0820181905260c0820181905260e08201819052610100820181905261012082018190526101408201819052610160820181905261018082018190526101a082018190526101c082015282525f19909201910181611f395790505b5090505f5b5f54811015612232575f5f8281548110611fe157611fe161322e565b5f9182526020808320909101546001600160a01b031680835260018252604080842081516101e08101835283815282516306fdde0360e01b815292519396509094909384019286926306fdde039260048083019391928290030181865afa15801561204e573d5f5f3e3d5ffd5b505050506040513d5f823e601f3d908101601f19168201604052612075919081019061334a565b8152602001836001600160a01b03166395d89b416040518163ffffffff1660e01b81526004015f60405180830381865afa1580156120b5573d5f5f3e3d5ffd5b505050506040513d5f823e601f3d908101601f191682016040526120dc919081019061334a565b81528254600160681b810460ff90811660208085019190915261010080840483161515604080870191909152620100008504909316151560608601526301000000840461ffff9081166080870152650100000000008504811660a0870152600160381b8504811660c0870152600160481b8504811660e0870152600160581b85041690850152600160701b9092046001600160801b03166101208401526001600160a01b0386165f818152600284528281205461014086015281815260039093529181902054610160840152516370a0823160e01b8152306004820152610180909201916370a0823190602401602060405180830381865afa1580156121e4573d5f5f3e3d5ffd5b505050506040513d601f19601f820116820180604052508101906122089190613242565b81525084848151811061221d5761221d61322e565b60209081029190910101525050600101611fc5565b5090565b61223e612883565b6001600160a01b03811661226757604051631e4fbdf760e01b81525f60048201526024016106b2565b6122708161293d565b50565b5f5160206133fe5f395f51905f525460ff16156108f55760405163d93c066560e01b815260040160405180910390fd5b5f6122ae83836129ad565b6001600160a01b038085165f908152600560209081526040808320938716835292905220549091508082111561233c576001600160a01b038085165f90815260056020908152604080832093871683529290522082905561230f81836131d4565b6001600160a01b0384165f90815260036020526040812080549091906123369084906131e7565b90915550505b50506001600160a01b039182165f9081526006602090815260408083209390941682529190915220429055565b6001600160a01b038681165f908152600160205260408082209288168252812080549192839290919083906123a990600160681b900460ff16600a61333c565b82546123c590600160701b90046001600160801b03168a61315a565b6123cf9190613171565b83549091505f906123f39061271090600160701b90046001600160801b031661315a565b845461240a90600160681b900460ff16600a61333c565b855461242390600160381b900461ffff166127106131e7565b61242d908561315a565b612437919061315a565b6124419190613171565b90505f60045f8c6001600160a01b03166001600160a01b031681526020019081526020015f205f8e6001600160a01b03166001600160a01b031681526020019081526020015f205490505f81116124d35760405162461bcd60e51b81526020600482015260166024820152751b9bc818dbdb1b185d195c985b081a5b88185cdcd95d60521b60448201526064016106b2565b8082111561259357845490915081905f906124f990600160681b900460ff16600a61333c565b865461251590600160701b90046001600160801b03168561315a565b61251f9190613171565b85548754919250600160701b90046001600160801b03169061254e90600160381b900461ffff166127106131e7565b612558919061315a565b855461256f90600160681b900460ff16600a61333c565b61257b6127108461315a565b612585919061315a565b61258f9190613171565b9a50505b6040516323b872dd60e01b8152336004820152306024820152604481018b90526001600160a01b038d16906323b872dd906064016020604051808303815f875af11580156125e3573d5f5f3e3d5ffd5b505050506040513d601f19601f820116820180604052508101906126079190613190565b6126235760405162461bcd60e51b81526004016106b2906131ab565b61262d8a8a6131d4565b60055f8d6001600160a01b03166001600160a01b031681526020019081526020015f205f8e6001600160a01b03166001600160a01b031681526020019081526020015f20819055508960035f8e6001600160a01b03166001600160a01b031681526020019081526020015f205410156126a6575f6126c9565b6001600160a01b038c165f908152600360205260409020546126c9908b906131d4565b6001600160a01b038d165f908152600360205260409020556126eb82826131d4565b60045f8d6001600160a01b03166001600160a01b031681526020019081526020015f205f8f6001600160a01b03166001600160a01b031681526020019081526020015f20819055508160025f8f6001600160a01b03166001600160a01b031681526020019081526020015f205f82825461276591906131d4565b909155505060405163a9059cbb60e01b8152336004820152602481018390526001600160a01b038e169063a9059cbb906044016020604051808303815f875af11580156127b4573d5f5f3e3d5ffd5b505050506040513d601f19601f820116820180604052508101906127d89190613190565b6127f45760405162461bcd60e51b81526004016106b2906131ab565b8a6001600160a01b03168c6001600160a01b03168e6001600160a01b03167fe413a321e8681d831f4dbccbca790d2952b56f977908e45be37335533e0052868d86338e604051612868949392919093845260208401929092526001600160a01b031660408301521515606082015260800190565b60405180910390a450979b979a509698505050505050505050565b336128b57f9016d09d72d40fdae2fd8ceac6b6234c7706214fd39c1cd1e609a0528c199300546001600160a01b031690565b6001600160a01b0316146108f55760405163118cdaa760e01b81523360048201526024016106b2565b6128e6612b0c565b5f5160206133fe5f395f51905f52805460ff191681557f5db9ee0a495bf2e6ff9c91a7834c1ba4fdd244a5e8aa4e537bd38aeae4b073aa335b6040516001600160a01b03909116815260200160405180910390a150565b7f9016d09d72d40fdae2fd8ceac6b6234c7706214fd39c1cd1e609a0528c19930080546001600160a01b031981166001600160a01b03848116918217845560405192169182907f8be0079c531659141344cd1fd0a4f28419497f9722a3daafe3b4186f6b6457e0905f90a3505050565b6001600160a01b038083165f9081526005602090815260408083209385168352929052908120548082036129e4575f915050612a7d565b6001600160a01b038085165f908152600660209081526040808320938716835292905290812054612a1590426131d4565b90505f612a286301e1338061271061315a565b6001600160a01b0386165f908152600160205260409020548390612a5790600160581b900461ffff168661315a565b612a61919061315a565b612a6b9190613171565b9050612a7781846131e7565b93505050505b92915050565b5f807ff0c57e16840df040f15088dc2f81fe391c3923bec73e23a9662efc9c229c6a00612a7d565b612ab3612b3b565b61227081612b60565b6108f5612b3b565b612acc612273565b5f5160206133fe5f395f51905f52805460ff191660011781557f62e78cea01bee320cd4e420270b5ea74000d11b0c9f74754ebdbfc544b05a2583361291f565b5f5160206133fe5f395f51905f525460ff166108f557604051638dfc202b60e01b815260040160405180910390fd5b612b43612b68565b6108f557604051631afcd79f60e31b815260040160405180910390fd5b61223e612b3b565b5f612b71612a83565b54600160401b900460ff16919050565b80356001600160a01b0381168114612b97575f5ffd5b919050565b8015158114612270575f5ffd5b5f5f5f5f5f60a08688031215612bbd575f5ffd5b612bc686612b81565b9450612bd460208701612b81565b9350612be260408701612b81565b9250606086013591506080860135612bf981612b9c565b809150509295509295909350565b5f5f60408385031215612c18575f5ffd5b612c2183612b81565b9150612c2f60208401612b81565b90509250929050565b5f5f5f5f60808587031215612c4b575f5ffd5b612c5485612b81565b93506020850135925060408501359150612c7060608601612b81565b905092959194509250565b5f5f60408385031215612c8c575f5ffd5b612c9583612b81565b91506020830135612ca581612b9c565b809150509250929050565b803561ffff81168114612b97575f5ffd5b5f5f5f5f60808587031215612cd4575f5ffd5b612cdd85612b81565b935060208501359250612cf260408601612b81565b9150612c7060608601612cb0565b5f5f5f60608486031215612d12575f5ffd5b612d1b84612b81565b925060208401359150612d3060408501612b81565b90509250925092565b5f60208284031215612d49575f5ffd5b612d5282612b81565b9392505050565b80356001600160801b0381168114612b97575f5ffd5b5f5f5f5f5f5f5f5f5f6101208a8c031215612d88575f5ffd5b612d918a612b81565b985060208a0135612da181612b9c565b975060408a0135612db181612b9c565b9650612dbf60608b01612cb0565b9550612dcd60808b01612cb0565b9450612ddb60a08b01612cb0565b9350612de960c08b01612cb0565b9250612df760e08b01612cb0565b9150612e066101008b01612d59565b90509295985092959850929598565b602080825282518282018190525f918401906040840190835b81811015612e7a57835180516001600160a01b03168452602080820151818601526040808301519086015260609182015115159185019190915290930192608090920191600101612e2e565b509095945050505050565b5f5f5f5f5f60a08688031215612e99575f5ffd5b612ea286612b81565b94506020860135935060408601359250612ebe60608701612cb0565b9150612ecc60808701612b81565b90509295509295909350565b5f5f60408385031215612ee9575f5ffd5b612ef283612b81565b9150612c2f60208401612d59565b602080825282518282018190525f918401906040840190835b81811015612e7a5783516001600160a01b0316835260209384019390920191600101612f19565b5f81518084528060208401602086015e5f602082860101526020601f19601f83011685010191505092915050565b5f602082016020835280845180835260408501915060408160051b8601019250602086015f5b828110156130ee57868503603f19018452815180516001600160a01b0316865260208101516101e06020880152612fcf6101e0880182612f40565b905060408201518782036040890152612fe88282612f40565b9150506060820151612fff606089018260ff169052565b506080820151613013608089018215159052565b5060a082015161302760a089018215159052565b5060c082015161303d60c089018261ffff169052565b5060e082015161305360e089018261ffff169052565b5061010082015161306b61010089018261ffff169052565b5061012082015161308361012089018261ffff169052565b5061014082015161309b61014089018261ffff169052565b506101608201516130b86101608901826001600160801b03169052565b5061018082810151908801526101a080830151908801526101c09182015191909601526020938401939190910190600101612f94565b50929695505050505050565b6020808252600d908201526c1d5b9adb9bdddb88185cdcd95d609a1b604082015260600190565b6020808252600b908201526a1e995c9bc8185b5bdd5b9d60aa1b604082015260600190565b634e487b7160e01b5f52601160045260245ffd5b8082028115828204841417612a7d57612a7d613146565b5f8261318b57634e487b7160e01b5f52601260045260245ffd5b500490565b5f602082840312156131a0575f5ffd5b8151612d5281612b9c565b6020808252600f908201526e1d1c985b9cd9995c8819985a5b1959608a1b604082015260600190565b81810381811115612a7d57612a7d613146565b80820180821115612a7d57612a7d613146565b5f6020828403121561320a575f5ffd5b815160ff81168114612d52575f5ffd5b634e487b7160e01b5f52604160045260245ffd5b634e487b7160e01b5f52603260045260245ffd5b5f60208284031215613252575f5ffd5b5051919050565b6001815b60018411156132945780850481111561327857613278613146565b600184161561328657908102905b60019390931c92800261325d565b935093915050565b5f826132aa57506001612a7d565b816132b657505f612a7d565b81600181146132cc57600281146132d6576132f2565b6001915050612a7d565b60ff8411156132e7576132e7613146565b50506001821b612a7d565b5060208310610133831016604e8410600b8410161715613315575081810a612a7d565b6133215f198484613259565b805f190482111561333457613334613146565b029392505050565b5f612d5260ff84168361329c565b5f6020828403121561335a575f5ffd5b815167ffffffffffffffff811115613370575f5ffd5b8201601f81018413613380575f5ffd5b805167ffffffffffffffff81111561339a5761339a61321a565b604051601f8201601f19908116603f0116810167ffffffffffffffff811182821017156133c9576133c961321a565b6040528181528282016020018610156133e0575f5ffd5b8160208401602083015e5f9181016020019190915294935050505056fecd5ed15c6e187e77e9aee88184c21f4f2182ab5827cb3b7e07fbedcd63f03300a2646970667358221220131555bc444c1cb1c39618fbb32aa3aef23e5216ed2c11d45f0aa0b791b0cf0464736f6c634300081c0033",
  "linkReferences": {},
  "deployedLinkReferences": {},
  "immutableReferences": {},
  "inputSourceName": "project/contracts/AetherPool.sol",
  "buildInfoId": "solc-0_8_28-3ecf7b536759699d5d44f4854b7727575743757b"
}