{
  "_format": "hh3-artifact-1",
  "contractName": "AetherPool",
  "sourceName": "contracts/AetherPool.sol",
  "abi": [
    {
      "inputs": [],
      "stateMutability": "nonpayable",
      "type": "constructor"
    },
    {
      "inputs": [],
      "name": "EnforcedPause",
      "type": "error"
    },
    {
      "inputs": [],
      "name": "ExpectedPause",
      "type": "error"
    },
    {
      "inputs": [],
      "name": "InvalidInitialization",
      "type": "error"
    },
    {
      "inputs": [],
      "name": "NotInitializing",
      "type": "error"
    },
    {
      "inputs": [
        {
          "internalType": "address",
          "name": "owner",
          "type": "address"
        }
      ],
      "name": "OwnableInvalidOwner",
      "type": "error"
    },
    {
      "inputs": [
        {
          "internalType": "address",
          "name": "account",
          "type": "address"
        }
      ],
      "name": "OwnableUnauthorizedAccount",
      "type": "error"
    },
    {
      "anonymous": false,
      "inputs": [
        {
          "indexed": true,
          "internalType": "address",
          "name": "reserve",
          "type": "address"
        },
        {
          "indexed": false,
          "internalType": "address",
          "name": "user",
          "type": "address"
        },
        {
          "indexed": true,
          "internalType": "address",
          "name": "onBehalfOf",
          "type": "address"
        },
        {
          "indexed": false,
          "internalType": "uint256",
          "name": "amount",
          "type": "uint256"
        },
        {
          "indexed": false,
          "internalType": "uint256",
          "name": "interestRateMode",
          "type": "uint256"
        },
        {
          "indexed": false,
          "internalType": "uint256",
          "name": "borrowRate",
          "type": "uint256"
        },
        {
          "indexed": false,
          "internalType": "uint16",
          "name": "referralCode",
          "type": "uint16"
        }
      ],
      "name": "Borrow",
      "type": "event"
    },
    {
      "anonymous": false,
      "inputs": [
        {
          "indexed": false,
          "internalType": "uint64",
          "name": "version",
          "type": "uint64"
        }
      ],
      "name": "Initialized",
      "type": "event"
    },
    {
      "anonymous": false,
      "inputs": [
        {
          "indexed": true,
          "internalType": "address",
          "name": "collateralAsset",
          "type": "address"
        },
        {
          "indexed": true,
          "internalType": "address",
          "name": "debtAsset",
          "type": "address"
        },
        {
          "indexed": true,
          "internalType": "address",
          "name": "user",
          "type": "address"
        },
        {
          "indexed": false,
          "internalType": "uint256",
          "name": "debtToCover",
          "type": "uint256"
        },
        {
          "indexed": false,
          "internalType": "uint256",
          "name": "liquidatedCollateralAmount",
          "type": "uint256"
        },
        {
          "indexed": false,
          "internalType": "address",
          "name": "liquidator",
          "type": "address"
        },
        {
          "indexed": false,
          "internalType": "bool",
          "name": "receiveAToken",
          "type": "bool"
        }
      ],
      "name": "LiquidationCall",
      "type": "event"
    },
    {
      "anonymous": false,
      "inputs": [
        {
          "indexed": true,
          "internalType": "address",
          "name": "previousOwner",
          "type": "address"
        },
        {
          "indexed": true,
          "internalType": "address",
          "name": "newOwner",
          "type": "address"
        }
      ],
      "name": "OwnershipTransferred",
      "type": "event"
    },
    {
      "anonymous": false,
      "inputs": [
        {
          "indexed": false,
          "internalType": "address",
          "name": "account",
          "type": "address"
        }
      ],
      "name": "Paused",
      "type": "event"
    },
    {
      "anonymous": false,
      "inputs": [
        {
          "indexed": true,
          "internalType": "address",
          "name": "asset",
          "type": "address"
        },
        {
          "indexed": false,
          "internalType": "uint256",
          "name": "priceUsd",
          "type": "uint256"
        }
      ],
      "name": "PriceUpdated",
      "type": "event"
    },
    {
      "anonymous": false,
      "inputs": [
        {
          "indexed": true,
          "internalType": "address",
          "name": "reserve",
          "type": "address"
        },
        {
          "indexed": true,
          "internalType": "address",
          "name": "user",
          "type": "address"
        },
        {
          "indexed": true,
          "internalType": "address",
          "name": "repayer",
          "type": "address"
        },
        {
          "indexed": false,
          "internalType": "uint256",
          "name": "amount",
          "type": "uint256"
        },
        {
          "indexed": false,
          "internalType": "bool",
          "name": "useATokens",
          "type": "bool"
        }
      ],
      "name": "Repay",
      "type": "event"
    },
    {
      "anonymous": false,
      "inputs": [
        {
          "indexed": true,
          "internalType": "address",
          "name": "asset",
          "type": "address"
        }
      ],
      "name": "ReserveInitialized",
      "type": "event"
    },
    {
      "anonymous": false,
      "inputs": [
        {
          "indexed": true,
          "internalType": "address",
          "name": "reserve",
          "type": "address"
        },
        {
          "indexed": true,
          "internalType": "address",
          "name": "user",
          "type": "address"
        }
      ],
      "name": "ReserveUsedAsCollateralDisabled",
      "type": "event"
    },
    {
      "anonymous": false,
      "inputs": [
        {
          "indexed": true,
          "internalType": "address",
          "name": "reserve",
          "type": "address"
        },
        {
          "indexed": true,
          "internalType": "address",
          "name": "user",
          "type": "address"
        }
      ],
      "name": "ReserveUsedAsCollateralEnabled",
      "type": "event"
    },
    {
      "anonymous": false,
      "inputs": [
        {
          "indexed": true,
          "internalType": "address",
          "name": "reserve",
          "type": "address"
        },
        {
          "indexed": false,
          "internalType": "address",
          "name": "user",
          "type": "address"
        },
        {
          "indexed": true,
          "internalType": "address",
          "name": "onBehalfOf",
          "type": "address"
        },
        {
          "indexed": false,
          "internalType": "uint256",
          "name": "amount",
          "type": "uint256"
        },
        {
          "indexed": false,
          "internalType": "uint16",
          "name": "referralCode",
          "type": "uint16"
        }
      ],
      "name": "Supply",
      "type": "event"
    },
    {
      "anonymous": false,
      "inputs": [
        {
          "indexed": false,
          "internalType": "address",
          "name": "account",
          "type": "address"
        }
      ],
      "name": "Unpaused",
      "type": "event"
    },
    {
      "anonymous": false,
      "inputs": [
        {
          "indexed": true,
          "internalType": "address",
          "name": "reserve",
          "type": "address"
        },
        {
          "indexed": true,
          "internalType": "address",
          "name": "user",
          "type": "address"
        },
        {
          "indexed": true,
          "internalType": "address",
          "name": "to",
          "type": "address"
        },
        {
          "indexed": false,
          "internalType": "uint256",
          "name": "amount",
          "type": "uint256"
        }
      ],
      "name": "Withdraw",
      "type": "event"
    },
    {
      "inputs": [],
      "name": "BASE_CURRENCY_DECIMALS",
      "outputs": [
        {
          "internalType": "uint256",
          "name": "",
          "type": "uint256"
        }
      ],
      "stateMutability": "view",
      "type": "function"
    },
    {
      "inputs": [],
      "name": "BPS_DENOM",
      "outputs": [
        {
          "internalType": "uint256",
          "name": "",
          "type": "uint256"
        }
      ],
      "stateMutability": "view",
      "type": "function"
    },
    {
      "inputs": [],
      "name": "CLOSE_FACTOR_BPS",
      "outputs": [
        {
          "internalType": "uint256",
          "name": "",
          "type": "uint256"
        }
      ],
      "stateMutability": "view",
      "type": "function"
    },
    {
      "inputs": [],
      "name": "FULL_LIQUIDATION_HF_THRESHOLD",
      "outputs": [
        {
          "internalType": "uint256",
          "name": "",
          "type": "uint256"
        }
      ],
      "stateMutability": "view",
      "type": "function"
    },
    {
      "inputs": [],
      "name": "HEALTH_FACTOR_DECIMALS",
      "outputs": [
        {
          "internalType": "uint256",
          "name": "",
          "type": "uint256"
        }
      ],
      "stateMutability": "view",
      "type": "function"
    },
    {
      "inputs": [],
      "name": "MIN_BORROW_AMOUNT",
      "outputs": [
        {
          "internalType": "uint256",
          "name": "",
          "type": "uint256"
        }
      ],
      "stateMutability": "view",
      "type": "function"
    },
    {
      "inputs": [],
      "name": "SECONDS_PER_YEAR",
      "outputs": [
        {
          "internalType": "uint256",
          "name": "",
          "type": "uint256"
        }
      ],
      "stateMutability": "view",
      "type": "function"
    },
    {
      "inputs": [
        {
          "internalType": "address",
          "name": "asset",
          "type": "address"
        },
        {
          "internalType": "uint256",
          "name": "amount",
          "type": "uint256"
        },
        {
          "internalType": "uint256",
          "name": "interestRateMode",
          "type": "uint256"
        },
        {
          "internalType": "uint16",
          "name": "referralCode",
          "type": "uint16"
        },
        {
          "internalType": "address",
          "name": "onBehalfOf",
          "type": "address"
        }
      ],
      "name": "borrow",
      "outputs": [],
      "stateMutability": "nonpayable",
      "type": "function"
    },
    {
      "inputs": [
        {
          "internalType": "address",
          "name": "",
          "type": "address"
        },
        {
          "internalType": "address",
          "name": "",
          "type": "address"
        }
      ],
      "name": "collateralDisabled",
      "outputs": [
        {
          "internalType": "bool",
          "name": "",
          "type": "bool"
        }
      ],
      "stateMutability": "view",
      "type": "function"
    },
    {
      "inputs": [
        {
          "internalType": "address",
          "name": "",
          "type": "address"
        },
        {
          "internalType": "address",
          "name": "",
          "type": "address"
        }
      ],
      "name": "debtTimestamp",
      "outputs": [
        {
          "internalType": "uint256",
          "name": "",
          "type": "uint256"
        }
      ],
      "stateMutability": "view",
      "type": "function"
    },
    {
      "inputs": [],
      "name": "getAllReservesData",
      "outputs": [
        {
          "components": [
            {
              "internalType": "address",
              "name": "asset",
              "type": "address"
            },
            {
              "internalType": "string",
              "name": "name",
              "type": "string"
            },
            {
              "internalType": "string",
              "name": "symbol",
              "type": "string"
            },
            {
              "internalType": "uint8",
              "name": "decimals",
              "type": "uint8"
            },
            {
              "internalType": "bool",
              "name": "borrowingEnabled",
              "type": "bool"
            },
            {
              "internalType": "bool",
              "name": "collateralEnabled",
              "type": "bool"
            },
            {
              "internalType": "uint16",
              "name": "ltv",
              "type": "uint16"
            },
            {
              "internalType": "uint16",
              "name": "liquidationThreshold",
              "type": "uint16"
            },
            {
              "internalType": "uint16",
              "name": "liquidationBonus",
              "type": "uint16"
            },
            {
              "internalType": "uint16",
              "name": "supplyRateBps",
              "type": "uint16"
            },
            {
              "internalType": "uint16",
              "name": "borrowRateBps",
              "type": "uint16"
            },
            {
              "internalType": "uint128",
              "name": "priceUsd",
              "type": "uint128"
            },
            {
              "internalType": "uint256",
              "name": "totalSupplied",
              "type": "uint256"
            },
            {
              "internalType": "uint256",
              "name": "totalBorrowed",
              "type": "uint256"
            },
            {
              "internalType": "uint256",
              "name": "availableLiquidity",
              "type": "uint256"
            }
          ],
          "internalType": "struct AetherPool.AggregatedReserveData[]",
          "name": "data",
          "type": "tuple[]"
        }
      ],
      "stateMutability": "view",
      "type": "function"
    },
    {
      "inputs": [
        {
          "internalType": "address",
          "name": "asset",
          "type": "address"
        }
      ],
      "name": "getAssetPrice",
      "outputs": [
        {
          "internalType": "uint256",
          "name": "",
          "type": "uint256"
        }
      ],
      "stateMutability": "view",
      "type": "function"
    },
    {
      "inputs": [],
      "name": "getReservesList",
      "outputs": [
        {
          "internalType": "address[]",
          "name": "",
          "type": "address[]"
        }
      ],
      "stateMutability": "view",
      "type": "function"
    },
    {
      "inputs": [
        {
          "internalType": "address",
          "name": "user",
          "type": "address"
        }
      ],
      "name": "getUserAccountData",
      "outputs": [
        {
          "internalType": "uint256",
          "name": "totalCollateralBase",
          "type": "uint256"
        },
        {
          "internalType": "uint256",
          "name": "totalDebtBase",
          "type": "uint256"
        },
        {
          "internalType": "uint256",
          "name": "availableBorrowsBase",
          "type": "uint256"
        },
        {
          "internalType": "uint256",
          "name": "currentLiquidationThreshold",
          "type": "uint256"
        },
        {
          "internalType": "uint256",
          "name": "ltv",
          "type": "uint256"
        },
        {
          "internalType": "uint256",
          "name": "healthFactor",
          "type": "uint256"
        }
      ],
      "stateMutability": "view",
      "type": "function"
    },
    {
      "inputs": [
        {
          "internalType": "address",
          "name": "user",
          "type": "address"
        }
      ],
      "name": "getUserReservesData",
      "outputs": [
        {
          "components": [
            {
              "internalType": "address",
              "name": "asset",
              "type": "address"
            },
            {
              "internalType": "uint256",
              "name": "supplied",
              "type": "uint256"
            },
            {
              "internalType": "uint256",
              "name": "currentDebt",
              "type": "uint256"
            },
            {
              "internalType": "bool",
              "name": "usageAsCollateralEnabled",
              "type": "bool"
            }
          ],
          "internalType": "struct AetherPool.UserReserveData[]",
          "name": "data",
          "type": "tuple[]"
        }
      ],
      "stateMutability": "view",
      "type": "function"
    },
    {
      "inputs": [
        {
          "internalType": "address",
          "name": "asset",
          "type": "address"
        },
        {
          "internalType": "bool",
          "name": "borrowingEnabled",
          "type": "bool"
        },
        {
          "internalType": "bool",
          "name": "collateralEnabled",
          "type": "bool"
        },
        {
          "internalType": "uint16",
          "name": "ltv",
          "type": "uint16"
        },
        {
          "internalType": "uint16",
          "name": "liquidationThreshold",
          "type": "uint16"
        },
        {
          "internalType": "uint16",
          "name": "liquidationBonus",
          "type": "uint16"
        },
        {
          "internalType": "uint16",
          "name": "supplyRateBps",
          "type": "uint16"
        },
        {
          "internalType": "uint16",
          "name": "borrowRateBps",
          "type": "uint16"
        },
        {
          "internalType": "uint128",
          "name": "priceUsd",
          "type": "uint128"
        }
      ],
      "name": "initReserve",
      "outputs": [],
      "stateMutability": "nonpayable",
      "type": "function"
    },
    {
      "inputs": [],
      "name": "initialize",
      "outputs": [],
      "stateMutability": "nonpayable",
      "type": "function"
    },
    {
      "inputs": [
        {
          "internalType": "address",
          "name": "collateralAsset",
          "type": "address"
        },
        {
          "internalType": "address",
          "name": "debtAsset",
          "type": "address"
        },
        {
          "internalType": "address",
          "name": "user",
          "type": "address"
        },
        {
          "internalType": "uint256",
          "name": "debtToCover",
          "type": "uint256"
        },
        {
          "internalType": "bool",
          "name": "receiveAToken",
          "type": "bool"
        }
      ],
      "name": "liquidationCall",
      "outputs": [
        {
          "internalType": "uint256",
          "name": "",
          "type": "uint256"
        },
        {
          "internalType": "uint256",
          "name": "",
          "type": "uint256"
        }
      ],
      "stateMutability": "nonpayable",
      "type": "function"
    },
    {
      "inputs": [],
      "name": "owner",
      "outputs": [
        {
          "internalType": "address",
          "name": "",
          "type": "address"
        }
      ],
      "stateMutability": "view",
      "type": "function"
    },
    {
      "inputs": [],
      "name": "pause",
      "outputs": [],
      "stateMutability": "nonpayable",
      "type": "function"
    },
    {
      "inputs": [],
      "name": "paused",
      "outputs": [
        {
          "internalType": "bool",
          "name": "",
          "type": "bool"
        }
      ],
      "stateMutability": "view",
      "type": "function"
    },
    {
      "inputs": [],
      "name": "renounceOwnership",
      "outputs": [],
      "stateMutability": "nonpayable",
      "type": "function"
    },
    {
      "inputs": [
        {
          "internalType": "address",
          "name": "asset",
          "type": "address"
        },
        {
          "internalType": "uint256",
          "name": "amount",
          "type": "uint256"
        },
        {
          "internalType": "uint256",
          "name": "",
          "type": "uint256"
        },
        {
          "internalType": "address",
          "name": "onBehalfOf",
          "type": "address"
        }
      ],
      "name": "repay",
      "outputs": [
        {
          "internalType": "uint256",
          "name": "",
          "type": "uint256"
        }
      ],
      "stateMutability": "nonpayable",
      "type": "function"
    },
    {
      "inputs": [
        {
          "internalType": "address",
          "name": "asset",
          "type": "address"
        },
        {
          "internalType": "uint256",
          "name": "amount",
          "type": "uint256"
        },
        {
          "internalType": "address",
          "name": "to",
          "type": "address"
        }
      ],
      "name": "rescue",
      "outputs": [],
      "stateMutability": "nonpayable",
      "type": "function"
    },
    {
      "inputs": [
        {
          "internalType": "address",
          "name": "",
          "type": "address"
        }
      ],
      "name": "reserveConfigs",
      "outputs": [
        {
          "internalType": "bool",
          "name": "initialized",
          "type": "bool"
        },
        {
          "internalType": "bool",
          "name": "borrowingEnabled",
          "type": "bool"
        },
        {
          "internalType": "bool",
          "name": "collateralEnabled",
          "type": "bool"
        },
        {
          "internalType": "uint16",
          "name": "ltv",
          "type": "uint16"
        },
        {
          "internalType": "uint16",
          "name": "liquidationThreshold",
          "type": "uint16"
        },
        {
          "internalType": "uint16",
          "name": "liquidationBonus",
          "type": "uint16"
        },
        {
          "internalType": "uint16",
          "name": "supplyRateBps",
          "type": "uint16"
        },
        {
          "internalType": "uint16",
          "name": "borrowRateBps",
          "type": "uint16"
        },
        {
          "internalType": "uint8",
          "name": "decimals",
          "type": "uint8"
        },
        {
          "internalType": "uint128",
          "name": "priceUsd",
          "type": "uint128"
        }
      ],
      "stateMutability": "view",
      "type": "function"
    },
    {
      "inputs": [
        {
          "internalType": "address",
          "name": "asset",
          "type": "address"
        },
        {
          "internalType": "uint128",
          "name": "priceUsd",
          "type": "uint128"
        }
      ],
      "name": "setAssetPrice",
      "outputs": [],
      "stateMutability": "nonpayable",
      "type": "function"
    },
    {
      "inputs": [
        {
          "internalType": "address",
          "name": "asset",
          "type": "address"
        },
        {
          "internalType": "bool",
          "name": "useAsCollateral",
          "type": "bool"
        }
      ],
      "name": "setUserUseReserveAsCollateral",
      "outputs": [],
      "stateMutability": "nonpayable",
      "type": "function"
    },
    {
      "inputs": [
        {
          "internalType": "address",
          "name": "asset",
          "type": "address"
        },
        {
          "internalType": "uint256",
          "name": "amount",
          "type": "uint256"
        },
        {
          "internalType": "address",
          "name": "onBehalfOf",
          "type": "address"
        },
        {
          "internalType": "uint16",
          "name": "referralCode",
          "type": "uint16"
        }
      ],
      "name": "supply",
      "outputs": [],
      "stateMutability": "nonpayable",
      "type": "function"
    },
    {
      "inputs": [
        {
          "internalType": "address",
          "name": "",
          "type": "address"
        }
      ],
      "name": "totalBorrowed",
      "outputs": [
        {
          "internalType": "uint256",
          "name": "",
          "type": "uint256"
        }
      ],
      "stateMutability": "view",
      "type": "function"
    },
    {
      "inputs": [
        {
          "internalType": "address",
          "name": "",
          "type": "address"
        }
      ],
      "name": "totalSupplied",
      "outputs": [
        {
          "internalType": "uint256",
          "name": "",
          "type": "uint256"
        }
      ],
      "stateMutability": "view",
      "type": "function"
    },
    {
      "inputs": [
        {
          "internalType": "address",
          "name": "newOwner",
          "type": "address"
        }
      ],
      "name": "transferOwnership",
      "outputs": [],
      "stateMutability": "nonpayable",
      "type": "function"
    },
    {
      "inputs": [],
      "name": "unpause",
      "outputs": [],
      "stateMutability": "nonpayable",
      "type": "function"
    },
    {
      "inputs": [
        {
          "internalType": "address",
          "name": "",
          "type": "address"
        },
        {
          "internalType": "address",
          "name": "",
          "type": "address"
        }
      ],
      "name": "userDebt",
      "outputs": [
        {
          "internalType": "uint256",
          "name": "",
          "type": "uint256"
        }
      ],
      "stateMutability": "view",
      "type": "function"
    },
    {
      "inputs": [
        {
          "internalType": "address",
          "name": "",
          "type": "address"
        },
        {
          "internalType": "address",
          "name": "",
          "type": "address"
        }
      ],
      "name": "userSupplies",
      "outputs": [
        {
          "internalType": "uint256",
          "name": "",
          "type": "uint256"
        }
      ],
      "stateMutability": "view",
      "type": "function"
    },
    {
      "inputs": [
        {
          "internalType": "address",
          "name": "asset",
          "type": "address"
        },
        {
          "internalType": "uint256",
          "name": "amount",
          "type": "uint256"
        },
        {
          "internalType": "address",
          "name": "to",
          "type": "address"
        }
      ],
      "name": "withdraw",
      "outputs": [
        {
          "internalType": "uint256",
          "name": "",
          "type": "uint256"
        }
      ],
      "stateMutability": "nonpayable",
      "type": "function"
    }
  ],
  "bytecode": "0x6080806040523460aa575f516020612bd95f395f51905f525460ff8160401c16609b576002600160401b03196001600160401b038216016049575b604051612b2a90816100af8239f35b6001600160401b0319166001600160401b039081175f516020612bd95f395f51905f525581527fc7f505b2f371ae2175ee4913f4499e1f2633a7b5936321eed1cdaeb6115181d290602090a15f80603a565b63f92ee8a960e01b5f5260045ffd5b5f80fdfe60806040526004361015610011575f80fd5b5f3560e01c8062a718a914611d56578063028cc65114611d0657806307e18d9114611ce457806314c8ad2c14611c94578063311d5c6214611c795780633f4ba83a14611bfb57806348ddab6414611bdf578063573ade8114611a1b5780635a3b74b9146118f65780635c975abb146118c8578063617ba037146117855780636637e38c1461115457806369328dec1461157d5780636bbe56cf14611545578063715018a6146114de578063717437a314611159578063745a5cec1461115457806379751e1b14610fb35780638129fc1c14610e675780638456cb5914610df65780638671d23b14610d7057806387dd56bc14610d195780638da5cb5b14610ce55780639f7f41bb14610c95578063a415bcad14610934578063b1fa847e1461085a578063b3596f0714610816578063b4bc12de146107f4578063bf92857c146107ac578063d1946dbc146106e6578063e2e1ca2b146106ae578063e6a69ab814610690578063f1af9b0414610283578063f2fde38b146102585763f4a3db1b14610199575f80fd5b34610254576020366003190112610254576001600160a01b036101ba6122b4565b165f52600160205261014060405f20546001600160801b036040519160ff81161515835260ff8160081c161515602084015260ff8160101c161515604084015261ffff8160181c16606084015261ffff8160281c16608084015261ffff8160381c1660a084015261ffff8160481c1660c084015261ffff8160581c1660e084015260ff8160681c1661010084015260701c16610120820152f35b5f80fd5b34610254576020366003190112610254576102816102746122b4565b61027c61299a565b612853565b005b34610254575f366003190112610254575f5461029e81612569565b906102ac6040519283612470565b808252601f196102bb82612569565b015f5b8181106106165750505f5b81811061041157826040518091602082016020835281518091526040830190602060408260051b8601019301915f905b82821061030857505050500390f35b919360019193955060208091603f19898203018552875190848060a01b0382511681526101c08061035d61034b868601516101e0888701526101e086019061236c565b6040860151858203604087015261236c565b9360ff606082015116606085015260808101511515608085015260a0810151151560a085015261ffff60c08201511660c085015261ffff60e08201511660e085015261ffff6101008201511661010085015261ffff6101208201511661012085015261ffff610140820151166101408501526001600160801b03610160820151166101608501526101808101516101808501526101a08101516101a0850152015191015296019201920185949391926102f9565b61041a8161253f565b905460039190911b1c6001600160a01b03165f8181526001602052604080822090516306fdde0360e01b81529093929181600481855afa9081156105cd575f916105fc575b506040516395d89b4160e01b8152935f85600481865afa9485156105cd575f956105d8575b5054825f52600260205260405f2054835f52600360205260405f205491604051936370a0823160e01b8552306004860152602085602481895afa9485156105cd575f95610597575b50906001976001600160801b0392604051976104e789612453565b88526020880152604087015260ff8160681c16606087015260ff8160081c161515608087015260ff8160101c16151560a087015261ffff8160181c1660c087015261ffff8160281c1660e087015261ffff8160381c1661010087015261ffff8160481c1661012087015261ffff8160581c1661014087015260701c166101608501526101808401526101a08301526101c08201526105858286612581565b526105908185612581565b50016102c9565b919094506020823d82116105c5575b816105b360209383612470565b810103126102545790519360016104cc565b3d91506105a6565b6040513d5f823e3d90fd5b6105f59195503d805f833e6105ed8183612470565b8101906127e0565b9387610484565b61061091503d805f833e6105ed8183612470565b8661045f565b60209060405161062581612453565b5f8152606083820152606060408201525f60608201525f60808201525f60a08201525f60c08201525f60e08201525f6101008201525f6101208201525f6101408201525f6101608201525f6101808201525f6101a08201525f6101c0820152828287010152016102be565b34610254575f3660031901126102545760206040516301e133808152f35b34610254576020366003190112610254576001600160a01b036106cf6122b4565b165f526003602052602060405f2054604051908152f35b34610254575f366003190112610254576040518060205f54928381520180925f80527f290decd9548b62a8d60345a988386fc84ba6bc95484008f6362f93160ef3e563905f5b81811061078d5750505081610742910382612470565b604051918291602083019060208452518091526040830191905f5b81811061076b575050500390f35b82516001600160a01b031684528594506020938401939092019160010161075d565b82546001600160a01b031684526020909301926001928301920161072c565b346102545760203660031901126102545760c06107cf6107ca6122b4565b6125a6565b93604093919351958652602086015260408501526060840152608083015260a0820152f35b34610254575f366003190112610254576020604051670de0b6b3a76400008152f35b34610254576020366003190112610254576001600160a01b036108376122b4565b165f52600160205260206001600160801b0360405f205460701c16604051908152f35b34610254576040366003190112610254576108736122b4565b602435906001600160801b03821690818303610254577f0d86730737b142fc160892fa8a0f2db687a92a0e294d1ad70624cf5acef03b849161092b6020926108b961299a565b60018060a01b031694855f52600184526108d960ff60405f205416612390565b6108e4831515612502565b5f868152600185526040902080546fffffffffffffffffffffffffffffffff60701b191660709290921b6fffffffffffffffffffffffffffffffff60701b16919091179055565b604051908152a2005b346102545760a03660031901126102545761094d6122b4565b602435610958612305565b6084356001600160a01b0381169390849003610254576109766128c4565b60018060a01b03811692835f52600160205260405f209160ff835461099c828216612390565b60081c1615610c5b576109b08215156123cc565b6127108210610c2357338603610bde576040516370a0823160e01b8152306004820152602081602481895afa80156105cd5783915f91610ba9575b5010610b6b576109fb90336128eb565b335f52600560205260405f20845f5260205260405f20610a1c8282546124f5565b9055835f52600360205260405f20610a358282546124f5565b9055610a40336125a6565b5091505061271082939202928084046127101490151715610b5757610a6491612406565b10610b245760405163a9059cbb60e01b8152336004820152602481018290526020816044815f895af19384156105cd5761ffff60a094610ace7fc6a898309e823ee50bac64e45ca8adba6690e99e7841c45d754e2a38e9019d9b9783955f91610af5575b506124aa565b5460581c1660405193338552602085015260443560408501526060840152166080820152a3005b610b17915060203d602011610b1d575b610b0f8183612470565b810190612492565b8b610ac8565b503d610b05565b60405162461bcd60e51b815260206004820152600b60248201526a32bc31b2b2b23990262a2b60a91b6044820152606490fd5b634e487b7160e01b5f52601160045260245ffd5b60405162461bcd60e51b8152602060048201526016602482015275696e73756666696369656e74206c697175696469747960501b6044820152606490fd5b9150506020813d602011610bd6575b81610bc560209383612470565b8101031261025457829051886109eb565b3d9150610bb8565b60405162461bcd60e51b815260206004820152601d60248201527f6372656469742064656c65676174696f6e20756e737570706f727465640000006044820152606490fd5b60405162461bcd60e51b815260206004820152601060248201526f30b6b7bab73a103132b637bb9036b4b760811b6044820152606490fd5b60405162461bcd60e51b8152602060048201526012602482015271189bdc9c9bddda5b99c8191a5cd8589b195960721b6044820152606490fd5b3461025457604036600319011261025457610cae6122b4565b610cb66122ca565b6001600160a01b039182165f908152600660209081526040808320949093168252928352819020549051908152f35b34610254575f366003190112610254575f516020612a955f395f51905f52546040516001600160a01b039091168152602090f35b3461025457604036600319011261025457610d326122b4565b610d3a6122ca565b9060018060a01b03165f52600760205260405f209060018060a01b03165f52602052602060ff60405f2054166040519015158152f35b3461025457610dc56020610d8336612332565b610d8e92919261299a565b60405163a9059cbb60e01b81526001600160a01b0390911660048201526024810192909252909283919082905f9082906044820190565b03926001600160a01b03165af180156105cd57610dde57005b6102819060203d602011610b1d57610b0f8183612470565b34610254575f36600319011261025457610e0e61299a565b610e166128c4565b600160ff195f516020612ab55f395f51905f525416175f516020612ab55f395f51905f52557f62e78cea01bee320cd4e420270b5ea74000d11b0c9f74754ebdbfc544b05a2586020604051338152a1005b34610254575f366003190112610254575f516020612ad55f395f51905f525460ff8160401c16159067ffffffffffffffff811680159081610fab575b6001149081610fa1575b159081610f98575b50610f895767ffffffffffffffff1981166001175f516020612ad55f395f51905f525581610f5d575b50610ee7612a69565b610eef612a69565b610ef833612853565b610f00612a69565b610f0657005b68ff0000000000000000195f516020612ad55f395f51905f5254165f516020612ad55f395f51905f52557fc7f505b2f371ae2175ee4913f4499e1f2633a7b5936321eed1cdaeb6115181d2602060405160018152a1005b68ffffffffffffffffff191668010000000000000001175f516020612ad55f395f51905f525581610ede565b63f92ee8a960e01b5f5260045ffd5b90501583610eb5565b303b159150610ead565b839150610ea3565b3461025457602036600319011261025457610fcc6122b4565b5f5490610fd882612569565b91610fe66040519384612470565b808352601f19610ff582612569565b015f5b818110611125575090916001600160a01b03811691505f5b83811061108657846040518091602082016020835281518091526020604084019201905f5b818110611043575050500390f35b919350916020608060019260608751858060a01b038151168352848101518584015260408101516040840152015115156060820152019401910191849392611035565b8061109260019261253f565b838060a01b0391549060031b1c16845f52600460205260405f20838060a01b0382165f5260205260405f20546110c882866129cd565b865f52600760205260405f20858060a01b0384165f5260205260ff60405f2054161591604051936110f885612437565b84526020840152604083015260608201526111138288612581565b5261111e8187612581565b5001611010565b60209060405161113481612437565b5f81525f838201525f60408201525f606082015282828801015201610ff8565b612316565b3461025457610120366003190112610254576111736122b4565b61117b6122f6565b6044359182151580930361025457611191612305565b926084359061ffff82168092036102545760a4359061ffff82168092036102545760c4359061ffff82168092036102545760e4359161ffff83168093036102545761010435956001600160801b038716809703610254576111f061299a565b6001600160a01b03165f8181526001602052604090205490989060ff166114a35761ffff1680861061146c57611227871515612502565b60405163313ce56760e01b8152946020866004818d5afa9586156105cd575f9661142e575b50604051986101408a018a811067ffffffffffffffff82111761141a5760405260018a5260208a01901515815260408a0194855260608a0192835260808a0197885260a08a0191825260c08a0193845260e08a019586526101008a019660ff1687526101208a019889528a5f52600160205260405f20995115156112dc908b9060ff801983541691151516179055565b51151589549451151560101b62ff000016925160181b64ffff00000016975160281b66ffff000000000016915160381b61ffff60381b16935160481b61ffff60481b169561ffff60581b905160581b169660ff60681b905160681b169760ff60681b199561ffff60581b199461ffff60481b199361ffff60381b199266ffff0000000000199160081b61ff00169064ffffffff001916171617161716171617161717178255516001600160801b03166113b691908154906001600160801b0360701b9060701b16906001600160801b0360701b1916179055565b5f546801000000000000000081101561141a578060016113d892015f5561253f565b81546001600160a01b0360039290921b91821b19169083901b1790557f0499d871c77da24e23f15a1c0c61d9741a93909db53cb6eb3b8575ab6a9179fe5f80a2005b634e487b7160e01b5f52604160045260245ffd5b9095506020813d602011611464575b8161144a60209383612470565b81010312610254575160ff8116810361025457948a61124c565b3d915061143d565b60405162461bcd60e51b815260206004820152600f60248201526e3a343932b9b437b632101e10363a3b60891b6044820152606490fd5b60405162461bcd60e51b8152602060048201526013602482015272185b1c9958591e481a5b9a5d1a585b1a5e9959606a1b6044820152606490fd5b34610254575f366003190112610254576114f661299a565b5f516020612a955f395f51905f5280546001600160a01b031981169091555f906001600160a01b03167f8be0079c531659141344cd1fd0a4f28419497f9722a3daafe3b4186f6b6457e08280a3005b34610254576020366003190112610254576001600160a01b036115666122b4565b165f526002602052602060405f2054604051908152f35b346102545761158b36612332565b916115946128c4565b6001600160a01b03165f818152600160205260409020546115b79060ff16612390565b335f52600460205260405f20815f5260205260405f2054915f1981145f1461177f5750815b82151580611775575b1561173f57826115f4916124e8565b335f52600460205260405f20825f5260205260405f2055805f52600260205260405f206116228382546124e8565b905561162d336125a6565b94505050501590811561172c575b50156116e75760405163a9059cbb60e01b81526001600160a01b038416600482015260248101839052926020846044815f865af19384156105cd57602094611689915f916116ca57506124aa565b6040518381526001600160a01b039091169133917f3115d1449a7b732c986cba18244e897a450f61e1bb8d589cd2e69e6c8924f9f7908690a4604051908152f35b6116e19150863d8811610b1d57610b0f8183612470565b86610ac8565b60405162461bcd60e51b815260206004820152601960248201527f484620746f6f206c6f77206166746572207769746864726177000000000000006044820152606490fd5b670de0b6b3a7640000915010158461163b565b60405162461bcd60e51b815260206004820152600e60248201526d1a5b9d985b1a5908185b5bdd5b9d60921b6044820152606490fd5b50808311156115e5565b916115dc565b346102545760803660031901126102545761179e6122b4565b6024356117a96122e0565b6117b1612305565b926117ba6128c4565b60018060a01b031691825f5260016020526117db60ff60405f205416612390565b6117e68115156123cc565b6040516323b872dd60e01b815233600482015230602482015260448101829052906020826064815f885af180156105cd577f2b627736bca15cd5381dcf80b0bf11fd197d01a037c52b927a881a10fb73ba619361184f61ffff926060955f916118a957506124aa565b60018060a01b031695865f52600460205260405f20865f5260205260405f206118798482546124f5565b9055855f52600260205260405f206118928482546124f5565b9055604051923384526020840152166040820152a3005b6118c2915060203d602011610b1d57610b0f8183612470565b89610ac8565b34610254575f36600319011261025457602060ff5f516020612ab55f395f51905f5254166040519015158152f35b346102545760403660031901126102545761190f6122b4565b6119176122f6565b9060018060a01b031690815f52600160205261193960ff60405f205416612390565b15335f52600760205260405f20825f526020526119658160405f209060ff801983541691151516179055565b156119f457611973336125a6565b9450505050159081156119e1575b50156119af5733907f44c58d81365b66dd4b1a7f36c25aa97b8c71c361ee4937adc1a00000227db5dd5f80a3005b60405162461bcd60e51b815260206004820152600a602482015269484620746f6f206c6f7760b01b6044820152606490fd5b670de0b6b3a76400009150101582611981565b33907e058a56ea94653cdf4f152d227ace22d4c00ad99e2a43f58cb7d9e3feb295f25f80a3005b3461025457608036600319011261025457611a346122b4565b602435906064356001600160a01b0381169182820361025457611a8090611a596128c4565b60018060a01b03811692835f526001602052611a7b60ff60405f205416612390565b6128eb565b815f52600560205260405f20815f5260205260405f2054928315611bb0575f1981148015611ba7575b15611ba1575082915b6040516323b872dd60e01b8152336004820152306024820152604481018490526020816064815f875af180156105cd57602095611afa8692611aff945f91611b8a57506124aa565b6124e8565b815f526005855260405f20835f52855260405f2055815f52600384528260405f205410155f14611b8457815f5260038452611b3e8360405f20546124e8565b825f526003855260405f2055604051918383525f858401527fa534c8dbe71f871f9f3530e97a74601fea17b426cae02e1c5aee42c96c78405160403394a4604051908152f35b5f611b3e565b6118c29150893d8b11610b1d57610b0f8183612470565b91611ab2565b50838111611aa9565b60405162461bcd60e51b81526020600482015260076024820152661b9bc81919589d60ca1b6044820152606490fd5b34610254575f3660031901126102545760206040516113888152f35b34610254575f36600319011261025457611c1361299a565b5f516020612ab55f395f51905f525460ff811615611c6a5760ff19165f516020612ab55f395f51905f52557f5db9ee0a495bf2e6ff9c91a7834c1ba4fdd244a5e8aa4e537bd38aeae4b073aa6020604051338152a1005b638dfc202b60e01b5f5260045ffd5b34610254575f36600319011261025457602060405160088152f35b3461025457604036600319011261025457611cad6122b4565b611cb56122ca565b6001600160a01b039182165f908152600560209081526040808320949093168252928352819020549051908152f35b34610254575f366003190112610254576020604051670d2f13f7789f00008152f35b3461025457604036600319011261025457611d1f6122b4565b611d276122ca565b6001600160a01b039182165f908152600460209081526040808320949093168252928352819020549051908152f35b346102545760a036600319011261025457611d6f6122b4565b611d776122ca565b611d7f6122e0565b6064356084359384151580950361025457611d986128c4565b6001600160a01b03165f8181526001602052604090205490929060ff1680612293575b611dc490612390565b825f52600160205260ff60405f205460101c16156122575760018060a01b03811691825f52600760205260405f20845f5260205260ff60405f20541661221a57611e0f8115156123cc565b611e18826125a6565b969450505050151580612209575b156121d35785611e35916128eb565b825f52600560205260405f2060018060a01b0386165f5260205260405f205491821561219b57670d2f13f7789f000011156121805781905b818111156121785750925b8394815f52600160205260405f209060018060a01b031692835f52600160205260405f2054611ece60ff611eb96001600160801b038460701c16809a612406565b9260681c1691611ec883612595565b90612419565b92549061ffff8260381c1661271001938461271011610b575784611ef191612406565b936001600160801b03611f1460ff8560681c1696611f0e88612595565b90612406565b9360701c169261271084028481046127101485151715610b5757611f3791612419565b98885f52600460205260405f20875f5260205260405f205495861561213a57868b116120e0575b50506040516323b872dd60e01b8152336004820152306024820152604481018b9052949250602091508490506064815f895af19283156105cd57888893611afa61200796611fb2945f916120c157506124aa565b865f52600560205260405f20865f5260205260405f2055845f5260036020528760405f205410155f146120bb57845f526003602052611ff58860405f20546124e8565b855f52600360205260405f20556124e8565b835f52600460205260405f20825f5260205260405f2055805f52600260205260405f206120358582546124e8565b905560405163a9059cbb60e01b8152336004820152602481018590526020816044815f865af180156105cd576040976120986080927fe413a321e8681d831f4dbccbca790d2952b56f977908e45be37335533e005286945f91610af557506124aa565b885190888252876020830152338a8301526060820152a482519182526020820152f35b5f611ff5565b6120da915060203d602011610b1d57610b0f8183612470565b8e610ac8565b9092949a5061210091939950611ec86120fa879b88612406565b91612595565b906127108202918083046127101490151715610b5757612129611ec892611f0e61212f96612595565b92612406565b958880808080611f5e565b60405162461bcd60e51b81526020600482015260166024820152751b9bc818dbdb1b185d195c985b081a5b88185cdcd95d60521b6044820152606490fd5b905092611e78565b611388820282810461138803610b5757612710900490611e6d565b60405162461bcd60e51b815260206004820152601060248201526f1b9bc81919589d081a5b88185cdcd95d60821b6044820152606490fd5b60405162461bcd60e51b815260206004820152600e60248201526d4846206e6f742062656c6f77203160901b6044820152606490fd5b50670de0b6b3a76400008310611e26565b60405162461bcd60e51b8152602060048201526015602482015274636f6c6c61746572616c206e6f742061637469766560581b6044820152606490fd5b60405162461bcd60e51b8152602060048201526014602482015273185cdcd95d081b9bdd0818dbdb1b185d195c985b60621b6044820152606490fd5b506001600160a01b0384165f9081526001602052604090205460ff16611dbb565b600435906001600160a01b038216820361025457565b602435906001600160a01b038216820361025457565b604435906001600160a01b038216820361025457565b60243590811515820361025457565b6064359061ffff8216820361025457565b34610254575f3660031901126102545760206040516127108152f35b6060906003190112610254576004356001600160a01b03811681036102545790602435906044356001600160a01b03811681036102545790565b805180835260209291819084018484015e5f828201840152601f01601f1916010190565b1561239757565b60405162461bcd60e51b815260206004820152600d60248201526c1d5b9adb9bdddb88185cdcd95d609a1b6044820152606490fd5b156123d357565b60405162461bcd60e51b815260206004820152600b60248201526a1e995c9bc8185b5bdd5b9d60aa1b6044820152606490fd5b81810292918115918404141715610b5757565b8115612423570490565b634e487b7160e01b5f52601260045260245ffd5b6080810190811067ffffffffffffffff82111761141a57604052565b6101e0810190811067ffffffffffffffff82111761141a57604052565b90601f8019910116810190811067ffffffffffffffff82111761141a57604052565b90816020910312610254575180151581036102545790565b156124b157565b60405162461bcd60e51b815260206004820152600f60248201526e1d1c985b9cd9995c8819985a5b1959608a1b6044820152606490fd5b91908203918211610b5757565b91908201809211610b5757565b1561250957565b60405162461bcd60e51b815260206004820152600e60248201526d1c1c9a58d9481c995c5d5a5c995960921b6044820152606490fd5b5f54811015612555575f805260205f2001905f90565b634e487b7160e01b5f52603260045260245ffd5b67ffffffffffffffff811161141a5760051b60200190565b80518210156125555760209160051b010190565b60ff16604d8111610b5757600a0a90565b5f915f915f905f90855f5f925f905f54915b8281106126675750505081612645575b506127109150826125d891612406565b04848082111561263d576125eb916124e8565b92846125f6575f1990565b6126008387612406565b670de0b6b3a7640000810290808204670de0b6b3a76400001490151715610b5757612710860286810461271003610b575761263a91612419565b90565b50505f6125eb565b8192945061265e93509061265891612419565b92612419565b905f85816125c8565b90919293506126758161253f565b90546001600160a01b0360039290921b1c81165f81815260016020908152604080832094871680845260048352818420858552909252909120549081151590816127d1575b816127a7575b50612728575b506126d190846129cd565b90816126e7575b505060010190899392916125b8565b9961271a61272092611ec860ff6127106001979f54936001600160801b038560701c1690612406565b9260681c16612595565b906124f5565b98905f6126d8565b959b8297919754968760701c6001600160801b031661274691612406565b8760681c60ff1661275690612595565b61275f91612419565b908161276a916124f5565b9c8760181c61ffff1661277d9083612406565b612786916124f5565b9660281c61ffff1661279791612406565b6127a0916124f5565b955f6126c6565b90505f52600760205260405f2060018060a01b0383165f5260205260ff60405f205416155f6126c0565b845460101c60ff1691506126ba565b6020818303126102545780519067ffffffffffffffff8211610254570181601f820112156102545780519067ffffffffffffffff821161141a5760405192612832601f8401601f191660200185612470565b8284526020838301011161025457815f9260208093018386015e8301015290565b6001600160a01b031680156128b1575f516020612a955f395f51905f5280546001600160a01b0319811683179091556001600160a01b03167f8be0079c531659141344cd1fd0a4f28419497f9722a3daafe3b4186f6b6457e05f80a3565b631e4fbdf760e01b5f525f60045260245ffd5b60ff5f516020612ab55f395f51905f5254166128dc57565b63d93c066560e01b5f5260045ffd5b6128f582826129cd565b6001600160a01b039182165f81815260056020908152604080832095871683529490529290922054808211612949575b50505f52600660205260405f209060018060a01b03165f5260205260405f20429055565b61297291835f52600560205260405f2060018060a01b0386165f526020528060405f20556124e8565b60018060a01b0383165f52600360205261299160405f209182546124f5565b90555f80612925565b5f516020612a955f395f51905f52546001600160a01b031633036129ba57565b63118cdaa760e01b5f523360045260245ffd5b60018060a01b031690815f52600560205260405f2060018060a01b0382165f5260205260405f2054908115612a6257612a5b64496cebb8009161263a945f52600660205260405f2060018060a01b0382165f52602052612a3160405f2054426124e8565b9060018060a01b03165f526001602052612a5661ffff60405f205460581c1685612406565b612406565b04906124f5565b5050505f90565b60ff5f516020612ad55f395f51905f525460401c1615612a8557565b631afcd79f60e31b5f5260045ffdfe9016d09d72d40fdae2fd8ceac6b6234c7706214fd39c1cd1e609a0528c199300cd5ed15c6e187e77e9aee88184c21f4f2182ab5827cb3b7e07fbedcd63f03300f0c57e16840df040f15088dc2f81fe391c3923bec73e23a9662efc9c229c6a00a2646970667358221220b8c86214d6048307b80df2d6193645dac6df4192c7a06ef89bc67fd59bf448d964736f6c634300081c0033f0c57e16840df040f15088dc2f81fe391c3923bec73e23a9662efc9c229c6a00",
  "linkReferences": {},
  "deployedLinkReferences": {},
  "immutableReferences": {},
  "inputSourceName": "project/contracts/AetherPool.sol",
  "buildInfoId": "solc-0_8_28-bd519b488a196c0a7473f4e03ac130f042a71239"
}